{
  "contractName": "SalaryData",
  "abi": [
    {
      "inputs": [],
      "stateMutability": "nonpayable",
      "type": "constructor"
    },
    {
      "inputs": [
        {
          "internalType": "uint256",
          "name": "",
          "type": "uint256"
        }
      ],
      "name": "employeeIds",
      "outputs": [
        {
          "internalType": "int256",
          "name": "",
          "type": "int256"
        }
      ],
      "stateMutability": "view",
      "type": "function",
      "constant": true
    },
    {
      "inputs": [
        {
          "internalType": "int256",
          "name": "",
          "type": "int256"
        }
      ],
      "name": "employees",
      "outputs": [
        {
          "internalType": "string",
          "name": "name",
          "type": "string"
        },
        {
          "internalType": "string",
          "name": "department",
          "type": "string"
        },
        {
          "internalType": "string",
          "name": "designation",
          "type": "string"
        },
        {
          "internalType": "uint256",
          "name": "totalPaid",
          "type": "uint256"
        }
      ],
      "stateMutability": "view",
      "type": "function",
      "constant": true
    },
    {
      "inputs": [
        {
          "internalType": "int256",
          "name": "",
          "type": "int256"
        },
        {
          "internalType": "uint256",
          "name": "",
          "type": "uint256"
        }
      ],
      "name": "salarySlips",
      "outputs": [
        {
          "internalType": "string",
          "name": "",
          "type": "string"
        }
      ],
      "stateMutability": "view",
      "type": "function",
      "constant": true
    },
    {
      "inputs": [
        {
          "internalType": "int256",
          "name": "empid",
          "type": "int256"
        },
        {
          "internalType": "string",
          "name": "name",
          "type": "string"
        },
        {
          "internalType": "string",
          "name": "department",
          "type": "string"
        },
        {
          "internalType": "string",
          "name": "designation",
          "type": "string"
        }
      ],
      "name": "addEmployee",
      "outputs": [],
      "stateMutability": "nonpayable",
      "type": "function"
    },
    {
      "inputs": [
        {
          "internalType": "int256",
          "name": "empid",
          "type": "int256"
        },
        {
          "internalType": "uint256",
          "name": "amount",
          "type": "uint256"
        },
        {
          "internalType": "string",
          "name": "ipfsCid",
          "type": "string"
        }
      ],
      "name": "paySalary",
      "outputs": [],
      "stateMutability": "nonpayable",
      "type": "function"
    },
    {
      "inputs": [
        {
          "internalType": "int256",
          "name": "empid",
          "type": "int256"
        }
      ],
      "name": "getEmployee",
      "outputs": [
        {
          "internalType": "string",
          "name": "",
          "type": "string"
        },
        {
          "internalType": "string",
          "name": "",
          "type": "string"
        },
        {
          "internalType": "string",
          "name": "",
          "type": "string"
        },
        {
          "internalType": "uint256[]",
          "name": "",
          "type": "uint256[]"
        },
        {
          "internalType": "uint256",
          "name": "",
          "type": "uint256"
        },
        {
          "internalType": "string[]",
          "name": "",
          "type": "string[]"
        }
      ],
      "stateMutability": "view",
      "type": "function",
      "constant": true
    },
    {
      "inputs": [],
      "name": "getAllEmployeeIds",
      "outputs": [
        {
          "internalType": "int256[]",
          "name": "",
          "type": "int256[]"
        }
      ],
      "stateMutability": "view",
      "type": "function",
      "constant": true
    }
  ],
  "bytecode": "0x608060405234801561001057600080fd5b5033600360006101000a81548173ffffffffffffffffffffffffffffffffffffffff021916908373ffffffffffffffffffffffffffffffffffffffff1602179055506116f7806100616000396000f3fe608060405234801561001057600080fd5b506004361061007d5760003560e01c8063412b3cfc1161005b578063412b3cfc146100f157806363d1f2021461010d5780637e3975361461013d578063cb4b96f01461016d5761007d565b80631fcf522f1461008257806321bbba5d146100a057806327fcd62c146100d5575b600080fd5b61008a6101a0565b6040516100979190610e1c565b60405180910390f35b6100ba60048036038101906100b59190610e7e565b6101f8565b6040516100cc96959493929190611127565b60405180910390f35b6100ef60048036038101906100ea919061130c565b610550565b005b61010b6004803603810190610106919061137b565b61069a565b005b61012760048036038101906101229190611436565b6109bf565b6040516101349190611476565b60405180910390f35b61015760048036038101906101529190611498565b610a78565b60405161016491906114d4565b60405180910390f35b61018760048036038101906101829190610e7e565b610a9c565b60405161019794939291906114ef565b60405180910390f35b606060028054806020026020016040519081016040528092919081815260200182805480156101ee57602002820191906000526020600020905b8154815260200190600101908083116101da575b5050505050905090565b6060806060806000606060008060008981526020019081526020016000206040518060a001604052908160008201805461023190611578565b80601f016020809104026020016040519081016040528092919081815260200182805461025d90611578565b80156102aa5780601f1061027f576101008083540402835291602001916102aa565b820191906000526020600020905b81548152906001019060200180831161028d57829003601f168201915b505050505081526020016001820180546102c390611578565b80601f01602080910402602001604051908101604052809291908181526020018280546102ef90611578565b801561033c5780601f106103115761010080835404028352916020019161033c565b820191906000526020600020905b81548152906001019060200180831161031f57829003601f168201915b5050505050815260200160028201805461035590611578565b80601f016020809104026020016040519081016040528092919081815260200182805461038190611578565b80156103ce5780601f106103a3576101008083540402835291602001916103ce565b820191906000526020600020905b8154815290600101906020018083116103b157829003601f168201915b505050505081526020016003820180548060200260200160405190810160405280929190818152602001828054801561042657602002820191906000526020600020905b815481526020019060010190808311610412575b50505050508152602001600482015481525050905080600001518160200151826040015183606001518460800151600160008e815260200190815260200160002080805480602002602001604051908101604052809291908181526020016000905b828210156105345783829060005260206000200180546104a790611578565b80601f01602080910402602001604051908101604052809291908181526020018280546104d390611578565b80156105205780601f106104f557610100808354040283529160200191610520565b820191906000526020600020905b81548152906001019060200180831161050357829003601f168201915b505050505081526020019060010190610488565b5050505090509650965096509650965096505091939550919395565b600360009054906101000a900473ffffffffffffffffffffffffffffffffffffffff1673ffffffffffffffffffffffffffffffffffffffff163373ffffffffffffffffffffffffffffffffffffffff16146105e0576040517f08c379a00000000000000000000000000000000000000000000000000000000081526004016105d79061161c565b60405180910390fd5b600080848152602001908152602001600020600301829080600181540180825580915050600190039060005260206000200160009091909190915055816000808581526020019081526020016000206004016000828254610641919061166b565b925050819055506001600084815260200190815260200160002081908060018154018082558091505060019003906000526020600020016000909190919091509080519060200190610694929190610c64565b50505050565b600360009054906101000a900473ffffffffffffffffffffffffffffffffffffffff1673ffffffffffffffffffffffffffffffffffffffff163373ffffffffffffffffffffffffffffffffffffffff161461072a576040517f08c379a00000000000000000000000000000000000000000000000000000000081526004016107219061161c565b60405180910390fd5b60008060008681526020019081526020016000206004015414156108ae57600284908060018154018082558091505060019003906000526020600020016000909190919091505560006040518060a001604052808581526020018481526020018381526020016000808881526020019081526020016000206003018054806020026020016040519081016040528092919081815260200182805480156107ef57602002820191906000526020600020905b8154815260200190600101908083116107db575b50505050508152602001600080888152602001908152602001600020600401548152509050806000808781526020019081526020016000206000820151816000019080519060200190610843929190610c64565b506020820151816001019080519060200190610860929190610c64565b50604082015181600201908051906020019061087d929190610c64565b50606082015181600301908051906020019061089a929190610cea565b5060808201518160040155905050506109b9565b60006040518060a00160405280858152602001848152602001838152602001600067ffffffffffffffff8111156108e8576108e76111e1565b5b6040519080825280602002602001820160405280156109165781602001602082028036833780820191505090505b50815260200160008152509050806000808781526020019081526020016000206000820151816000019080519060200190610952929190610c64565b50602082015181600101908051906020019061096f929190610c64565b50604082015181600201908051906020019061098c929190610c64565b5060608201518160030190805190602001906109a9929190610cea565b5060808201518160040155905050505b50505050565b600160205281600052604060002081815481106109db57600080fd5b906000526020600020016000915091505080546109f790611578565b80601f0160208091040260200160405190810160405280929190818152602001828054610a2390611578565b8015610a705780601f10610a4557610100808354040283529160200191610a70565b820191906000526020600020905b815481529060010190602001808311610a5357829003601f168201915b505050505081565b60028181548110610a8857600080fd5b906000526020600020016000915090505481565b6000602052806000526040600020600091509050806000018054610abf90611578565b80601f0160208091040260200160405190810160405280929190818152602001828054610aeb90611578565b8015610b385780601f10610b0d57610100808354040283529160200191610b38565b820191906000526020600020905b815481529060010190602001808311610b1b57829003601f168201915b505050505090806001018054610b4d90611578565b80601f0160208091040260200160405190810160405280929190818152602001828054610b7990611578565b8015610bc65780601f10610b9b57610100808354040283529160200191610bc6565b820191906000526020600020905b815481529060010190602001808311610ba957829003601f168201915b505050505090806002018054610bdb90611578565b80601f0160208091040260200160405190810160405280929190818152602001828054610c0790611578565b8015610c545780601f10610c2957610100808354040283529160200191610c54565b820191906000526020600020905b815481529060010190602001808311610c3757829003601f168201915b5050505050908060040154905084565b828054610c7090611578565b90600052602060002090601f016020900481019282610c925760008555610cd9565b82601f10610cab57805160ff1916838001178555610cd9565b82800160010185558215610cd9579182015b82811115610cd8578251825591602001919060010190610cbd565b5b509050610ce69190610d37565b5090565b828054828255906000526020600020908101928215610d26579160200282015b82811115610d25578251825591602001919060010190610d0a565b5b509050610d339190610d37565b5090565b5b80821115610d50576000816000905550600101610d38565b5090565b600081519050919050565b600082825260208201905092915050565b6000819050602082019050919050565b6000819050919050565b610d9381610d80565b82525050565b6000610da58383610d8a565b60208301905092915050565b6000602082019050919050565b6000610dc982610d54565b610dd38185610d5f565b9350610dde83610d70565b8060005b83811015610e0f578151610df68882610d99565b9750610e0183610db1565b925050600181019050610de2565b5085935050505092915050565b60006020820190508181036000830152610e368184610dbe565b905092915050565b6000604051905090565b600080fd5b600080fd5b610e5b81610d80565b8114610e6657600080fd5b50565b600081359050610e7881610e52565b92915050565b600060208284031215610e9457610e93610e48565b5b6000610ea284828501610e69565b91505092915050565b600081519050919050565b600082825260208201905092915050565b60005b83811015610ee5578082015181840152602081019050610eca565b83811115610ef4576000848401525b50505050565b6000601f19601f8301169050919050565b6000610f1682610eab565b610f208185610eb6565b9350610f30818560208601610ec7565b610f3981610efa565b840191505092915050565b600081519050919050565b600082825260208201905092915050565b6000819050602082019050919050565b6000819050919050565b610f8381610f70565b82525050565b6000610f958383610f7a565b60208301905092915050565b6000602082019050919050565b6000610fb982610f44565b610fc38185610f4f565b9350610fce83610f60565b8060005b83811015610fff578151610fe68882610f89565b9750610ff183610fa1565b925050600181019050610fd2565b5085935050505092915050565b61101581610f70565b82525050565b600081519050919050565b600082825260208201905092915050565b6000819050602082019050919050565b600082825260208201905092915050565b600061106382610eab565b61106d8185611047565b935061107d818560208601610ec7565b61108681610efa565b840191505092915050565b600061109d8383611058565b905092915050565b6000602082019050919050565b60006110bd8261101b565b6110c78185611026565b9350836020820285016110d985611037565b8060005b8581101561111557848403895281516110f68582611091565b9450611101836110a5565b925060208a019950506001810190506110dd565b50829750879550505050505092915050565b600060c08201905081810360008301526111418189610f0b565b905081810360208301526111558188610f0b565b905081810360408301526111698187610f0b565b9050818103606083015261117d8186610fae565b905061118c608083018561100c565b81810360a083015261119e81846110b2565b9050979650505050505050565b6111b481610f70565b81146111bf57600080fd5b50565b6000813590506111d1816111ab565b92915050565b600080fd5b600080fd5b7f4e487b7100000000000000000000000000000000000000000000000000000000600052604160045260246000fd5b61121982610efa565b810181811067ffffffffffffffff82111715611238576112376111e1565b5b80604052505050565b600061124b610e3e565b90506112578282611210565b919050565b600067ffffffffffffffff821115611277576112766111e1565b5b61128082610efa565b9050602081019050919050565b82818337600083830152505050565b60006112af6112aa8461125c565b611241565b9050828152602081018484840111156112cb576112ca6111dc565b5b6112d684828561128d565b509392505050565b600082601f8301126112f3576112f26111d7565b5b813561130384826020860161129c565b91505092915050565b60008060006060848603121561132557611324610e48565b5b600061133386828701610e69565b9350506020611344868287016111c2565b925050604084013567ffffffffffffffff81111561136557611364610e4d565b5b611371868287016112de565b9150509250925092565b6000806000806080858703121561139557611394610e48565b5b60006113a387828801610e69565b945050602085013567ffffffffffffffff8111156113c4576113c3610e4d565b5b6113d0878288016112de565b935050604085013567ffffffffffffffff8111156113f1576113f0610e4d565b5b6113fd878288016112de565b925050606085013567ffffffffffffffff81111561141e5761141d610e4d565b5b61142a878288016112de565b91505092959194509250565b6000806040838503121561144d5761144c610e48565b5b600061145b85828601610e69565b925050602061146c858286016111c2565b9150509250929050565b600060208201905081810360008301526114908184610f0b565b905092915050565b6000602082840312156114ae576114ad610e48565b5b60006114bc848285016111c2565b91505092915050565b6114ce81610d80565b82525050565b60006020820190506114e960008301846114c5565b92915050565b600060808201905081810360008301526115098187610f0b565b9050818103602083015261151d8186610f0b565b905081810360408301526115318185610f0b565b9050611540606083018461100c565b95945050505050565b7f4e487b7100000000000000000000000000000000000000000000000000000000600052602260045260246000fd5b6000600282049050600182168061159057607f821691505b602082108114156115a4576115a3611549565b5b50919050565b7f4f6e6c792061646d696e2063616e2063616c6c20746869732066756e6374696f60008201527f6e2e000000000000000000000000000000000000000000000000000000000000602082015250565b6000611606602283610eb6565b9150611611826115aa565b604082019050919050565b60006020820190508181036000830152611635816115f9565b9050919050565b7f4e487b7100000000000000000000000000000000000000000000000000000000600052601160045260246000fd5b600061167682610f70565b915061168183610f70565b9250827fffffffffffffffffffffffffffffffffffffffffffffffffffffffffffffffff038211156116b6576116b561163c565b5b82820190509291505056fea264697066735822122089a77d0f0244e326489a1515f6e3e3f57f1f0c02f1e94995814c0158fb6820b964736f6c63430008090033",
  "immutableReferences": {},
  "source": "// SPDX-License-Identifier: MIT\npragma solidity ^0.8;\n\ncontract SalaryData {\n    struct Employee {\n        string name;\n        string department;\n        string designation;\n        uint[] payments;\n        uint totalPaid;\n    }\n\n    mapping(int => Employee) public employees;\n    mapping(int => string[]) public salarySlips;\n    int[] public employeeIds; // Array to keep track of employee IDs\n    address admin;\n\n    constructor() {\n        admin = msg.sender;\n    }\n\n    modifier onlyAdmin() {\n        require(msg.sender == admin, \"Only admin can call this function.\");\n        _;\n    }\n\n    function addEmployee(int empid, string memory name, string memory department, string memory designation) public onlyAdmin {\n        if (employees[empid].totalPaid == 0) {\n            employeeIds.push(empid); // Add the employee ID to the array when a new employee is added\n            Employee memory newEmployee = Employee(name, department, designation, employees[empid].payments, employees[empid].totalPaid);\n            employees[empid] = newEmployee;\n        }\n        else{\n             Employee memory newEmployee = Employee(name, department, designation, new uint[](0), 0);\n             employees[empid] = newEmployee;\n        }\n        \n    }\n\n    function paySalary(int empid, uint amount, string memory ipfsCid) public onlyAdmin {\n        employees[empid].payments.push(amount);\n        employees[empid].totalPaid += amount;\n        salarySlips[empid].push(ipfsCid); // Add the salary slip to the array\n    }\n\n    function getEmployee(int empid) public view returns (string memory, string memory, string memory, uint[] memory, uint, string[] memory) {\n        Employee memory currentEmployee = employees[empid];\n        return (currentEmployee.name, currentEmployee.department, currentEmployee.designation, currentEmployee.payments, currentEmployee.totalPaid, salarySlips[empid]);\n    }\n\n\n    function getAllEmployeeIds() public view returns (int[] memory) {\n        return employeeIds;\n    }\n}\n",
  "sourcePath": "C:\\Users\\vivek\\Desktop\\BlockchainProject\\contracts\\Salary.sol",
  "compiler": {
    "name": "solc",
    "version": "0.8.9+commit.e5eed63a.Emscripten.clang"
  },
  "schemaVersion": "3.4.16",
  "updatedAt": "2024-03-18T10:33:28.144Z",
  "networkType": "ethereum",
  "devdoc": {
    "kind": "dev",
    "methods": {},
    "version": 1
  },
  "userdoc": {
    "kind": "user",
    "methods": {},
    "version": 1
  }
}